{
  "contractName": "LoanPlatform",
  "abi": [
    {
      "inputs": [],
      "name": "getLoanRequestArrayLength",
      "outputs": [
        {
          "internalType": "uint256",
          "name": "length",
          "type": "uint256"
        }
      ],
      "stateMutability": "view",
      "type": "function",
      "constant": true
    },
    {
      "inputs": [
        {
          "internalType": "uint256",
          "name": "sum",
          "type": "uint256"
        },
        {
          "internalType": "uint256",
          "name": "interest",
          "type": "uint256"
        },
        {
          "internalType": "uint256",
          "name": "paybackPeriod",
          "type": "uint256"
        }
      ],
      "name": "submitRequest",
      "outputs": [],
      "stateMutability": "nonpayable",
      "type": "function"
    },
    {
      "inputs": [
        {
          "internalType": "uint256",
          "name": "index",
          "type": "uint256"
        }
      ],
      "name": "viewRequest",
      "outputs": [
        {
          "internalType": "address",
          "name": "borrower",
          "type": "address"
        },
        {
          "internalType": "address",
          "name": "guarantor",
          "type": "address"
        },
        {
          "internalType": "address",
          "name": "lender",
          "type": "address"
        },
        {
          "internalType": "uint256",
          "name": "sum",
          "type": "uint256"
        },
        {
          "internalType": "uint256",
          "name": "interest",
          "type": "uint256"
        },
        {
          "internalType": "uint256",
          "name": "paybackPeriod",
          "type": "uint256"
        },
        {
          "internalType": "uint256",
          "name": "guarantorInterest",
          "type": "uint256"
        },
        {
          "internalType": "uint256",
          "name": "lenderInterest",
          "type": "uint256"
        },
        {
          "internalType": "uint256",
          "name": "status",
          "type": "uint256"
        }
      ],
      "stateMutability": "view",
      "type": "function",
      "constant": true
    },
    {
      "inputs": [
        {
          "internalType": "uint256",
          "name": "index",
          "type": "uint256"
        },
        {
          "internalType": "uint256",
          "name": "gInterest",
          "type": "uint256"
        }
      ],
      "name": "guarantee",
      "outputs": [],
      "stateMutability": "payable",
      "type": "function",
      "payable": true
    },
    {
      "inputs": [
        {
          "internalType": "uint256",
          "name": "index",
          "type": "uint256"
        }
      ],
      "name": "lend",
      "outputs": [],
      "stateMutability": "payable",
      "type": "function",
      "payable": true
    },
    {
      "inputs": [
        {
          "internalType": "uint256",
          "name": "index",
          "type": "uint256"
        }
      ],
      "name": "accept",
      "outputs": [],
      "stateMutability": "nonpayable",
      "type": "function"
    },
    {
      "inputs": [
        {
          "internalType": "uint256",
          "name": "index",
          "type": "uint256"
        }
      ],
      "name": "reject",
      "outputs": [],
      "stateMutability": "nonpayable",
      "type": "function"
    },
    {
      "inputs": [
        {
          "internalType": "uint256",
          "name": "index",
          "type": "uint256"
        }
      ],
      "name": "payBack",
      "outputs": [],
      "stateMutability": "payable",
      "type": "function",
      "payable": true
    },
    {
      "inputs": [
        {
          "internalType": "uint256",
          "name": "index",
          "type": "uint256"
        }
      ],
      "name": "missedPayback",
      "outputs": [],
      "stateMutability": "nonpayable",
      "type": "function"
    }
  ],
  "bytecode": "0x608060405234801561001057600080fd5b50611ec5806100206000396000f3fe6080604052600436106100865760003560e01c80637ccc5d35116100595780637ccc5d351461025b5780639aab256014610289578063a6aa57ce146102b4578063b6f4506c146102e2578063b8adaa111461031a57610086565b80631455b1361461008b57806319b05f49146100da57806323c86a631461011557806326e8525014610150575b600080fd5b34801561009757600080fd5b506100d8600480360360608110156100ae57600080fd5b81019080803590602001909291908035906020019092919080359060200190929190505050610355565b005b3480156100e657600080fd5b50610113600480360360208110156100fd57600080fd5b8101908080359060200190929190505050610598565b005b34801561012157600080fd5b5061014e6004803603602081101561013857600080fd5b8101908080359060200190929190505050610707565b005b34801561015c57600080fd5b506101896004803603602081101561017357600080fd5b81019080803590602001909291905050506109c6565b604051808a73ffffffffffffffffffffffffffffffffffffffff1673ffffffffffffffffffffffffffffffffffffffff1681526020018973ffffffffffffffffffffffffffffffffffffffff1673ffffffffffffffffffffffffffffffffffffffff1681526020018873ffffffffffffffffffffffffffffffffffffffff1673ffffffffffffffffffffffffffffffffffffffff168152602001878152602001868152602001858152602001848152602001838152602001828152602001995050505050505050505060405180910390f35b6102876004803603602081101561027157600080fd5b8101908080359060200190929190505050610c07565b005b34801561029557600080fd5b5061029e611026565b6040518082815260200191505060405180910390f35b6102e0600480360360208110156102ca57600080fd5b8101908080359060200190929190505050611032565b005b610318600480360360408110156102f857600080fd5b810190808035906020019092919080359060200190929190505050611476565b005b34801561032657600080fd5b506103536004803603602081101561033d57600080fd5b81019080803590602001909291905050506117f0565b005b600083116103cb576040517f08c379a000000000000000000000000000000000000000000000000000000000815260040180806020018281038252601a8152602001807f4c6f616e2076616c75652063616e6e6f74206265207a65726f2100000000000081525060200191505060405180910390fd5b60006040518061012001604052803373ffffffffffffffffffffffffffffffffffffffff168152602001600073ffffffffffffffffffffffffffffffffffffffff168152602001600073ffffffffffffffffffffffffffffffffffffffff168152602001858152602001848152602001834201815260200160008152602001600081526020016000815250908060018154018082558091505060019003906000526020600020906009020160009091909190915060008201518160000160006101000a81548173ffffffffffffffffffffffffffffffffffffffff021916908373ffffffffffffffffffffffffffffffffffffffff16021790555060208201518160010160006101000a81548173ffffffffffffffffffffffffffffffffffffffff021916908373ffffffffffffffffffffffffffffffffffffffff16021790555060408201518160020160006101000a81548173ffffffffffffffffffffffffffffffffffffffff021916908373ffffffffffffffffffffffffffffffffffffffff160217905550606082015181600301556080820151816004015560a0820151816005015560c0820151816006015560e0820151816007015561010082015181600801555050505050565b80600115156105a682611b95565b1515146105fe576040517f08c379a000000000000000000000000000000000000000000000000000000000815260040180806020018281038252602a815260200180611e33602a913960400191505060405180910390fd5b816000818154811061060c57fe5b906000526020600020906009020160000160009054906101000a900473ffffffffffffffffffffffffffffffffffffffff1673ffffffffffffffffffffffffffffffffffffffff163373ffffffffffffffffffffffffffffffffffffffff16146106de576040517f08c379a00000000000000000000000000000000000000000000000000000000081526004018080602001828103825260198152602001807f596f7520617265206e6f742074686520626f72726f776572210000000000000081525060200191505060405180910390fd5b6001600084815481106106ed57fe5b906000526020600020906009020160080181905550505050565b806001151561071582611b95565b15151461076d576040517f08c379a000000000000000000000000000000000000000000000000000000000815260040180806020018281038252602a815260200180611e33602a913960400191505060405180910390fd5b6000828154811061077a57fe5b9060005260206000209060090201600501544211610800576040517f08c379a000000000000000000000000000000000000000000000000000000000815260040180806020018281038252601c8152602001807f5061796261636b20706572696f64206e6f74206f76657220796574210000000081525060200191505060405180910390fd5b6000828154811061080d57fe5b906000526020600020906009020160020160009054906101000a900473ffffffffffffffffffffffffffffffffffffffff1673ffffffffffffffffffffffffffffffffffffffff163373ffffffffffffffffffffffffffffffffffffffff16146108c2576040517f08c379a000000000000000000000000000000000000000000000000000000000815260040180806020018281038252602a815260200180611cf0602a913960400191505060405180910390fd5b6002600083815481106108d157fe5b90600052602060002090600902016008015414610939576040517f08c379a0000000000000000000000000000000000000000000000000000000008152600401808060200182810382526034815260200180611dd46034913960400191505060405180910390fd5b60046000838154811061094857fe5b9060005260206000209060090201600801819055503373ffffffffffffffffffffffffffffffffffffffff166108fc6000848154811061098457fe5b9060005260206000209060090201600301549081150290604051600060405180830381858888f193505050501580156109c1573d6000803e3d6000fd5b505050565b600080600080600080600080600089600115156109e282611b95565b151514610a3a576040517f08c379a000000000000000000000000000000000000000000000000000000000815260040180806020018281038252602a815260200180611e33602a913960400191505060405180910390fd5b610a42611bb6565b60008c81548110610a4f57fe5b9060005260206000209060090201604051806101200160405290816000820160009054906101000a900473ffffffffffffffffffffffffffffffffffffffff1673ffffffffffffffffffffffffffffffffffffffff1673ffffffffffffffffffffffffffffffffffffffff1681526020016001820160009054906101000a900473ffffffffffffffffffffffffffffffffffffffff1673ffffffffffffffffffffffffffffffffffffffff1673ffffffffffffffffffffffffffffffffffffffff1681526020016002820160009054906101000a900473ffffffffffffffffffffffffffffffffffffffff1673ffffffffffffffffffffffffffffffffffffffff1673ffffffffffffffffffffffffffffffffffffffff16815260200160038201548152602001600482015481526020016005820154815260200160068201548152602001600782015481526020016008820154815250509050806000015181602001518260400151836060015184608001518560a001518660c001518760c001518860800151038861010001518898508797508696509a509a509a509a509a509a509a509a509a5050509193959799909294969850565b8060011515610c1582611b95565b151514610c6d576040517f08c379a000000000000000000000000000000000000000000000000000000000815260040180806020018281038252602a815260200180611e33602a913960400191505060405180910390fd5b8160008181548110610c7b57fe5b906000526020600020906009020160000160009054906101000a900473ffffffffffffffffffffffffffffffffffffffff1673ffffffffffffffffffffffffffffffffffffffff163373ffffffffffffffffffffffffffffffffffffffff1614610d4d576040517f08c379a00000000000000000000000000000000000000000000000000000000081526004018080602001828103825260198152602001807f596f7520617265206e6f742074686520626f72726f776572210000000000000081525060200191505060405180910390fd5b60008381548110610d5a57fe5b90600052602060002090600902016004015460008481548110610d7957fe5b906000526020600020906009020160030154013414610e00576040517f08c379a000000000000000000000000000000000000000000000000000000000815260040180806020018281038252601d8152602001807f496e73756666696369656e742066756e64732070617373656420696e2100000081525060200191505060405180910390fd5b600260008481548110610e0f57fe5b90600052602060002090600902016008015414610e77576040517f08c379a0000000000000000000000000000000000000000000000000000000008152600401808060200182810382526033815260200180611cbd6033913960400191505060405180910390fd5b600360008481548110610e8657fe5b90600052602060002090600902016008018190555060008381548110610ea857fe5b906000526020600020906009020160010160009054906101000a900473ffffffffffffffffffffffffffffffffffffffff1673ffffffffffffffffffffffffffffffffffffffff166108fc60008581548110610f0057fe5b90600052602060002090600902016006015460008681548110610f1f57fe5b906000526020600020906009020160030154019081150290604051600060405180830381858888f19350505050158015610f5d573d6000803e3d6000fd5b5060008381548110610f6b57fe5b906000526020600020906009020160020160009054906101000a900473ffffffffffffffffffffffffffffffffffffffff1673ffffffffffffffffffffffffffffffffffffffff166108fc60008581548110610fc357fe5b90600052602060002090600902016007015460008681548110610fe257fe5b906000526020600020906009020160030154019081150290604051600060405180830381858888f19350505050158015611020573d6000803e3d6000fd5b50505050565b60008080549050905090565b806001151561104082611b95565b151514611098576040517f08c379a000000000000000000000000000000000000000000000000000000000815260040180806020018281038252602a815260200180611e33602a913960400191505060405180910390fd5b600082815481106110a557fe5b906000526020600020906009020160030154341461110e576040517f08c379a0000000000000000000000000000000000000000000000000000000008152600401808060200182810382526033815260200180611e5d6033913960400191505060405180910390fd5b6000828154811061111b57fe5b906000526020600020906009020160000160009054906101000a900473ffffffffffffffffffffffffffffffffffffffff1673ffffffffffffffffffffffffffffffffffffffff163373ffffffffffffffffffffffffffffffffffffffff1614156111d1576040517f08c379a0000000000000000000000000000000000000000000000000000000008152600401808060200182810382526021815260200180611db36021913960400191505060405180910390fd5b600082815481106111de57fe5b906000526020600020906009020160010160009054906101000a900473ffffffffffffffffffffffffffffffffffffffff1673ffffffffffffffffffffffffffffffffffffffff163373ffffffffffffffffffffffffffffffffffffffff161415611294576040517f08c379a0000000000000000000000000000000000000000000000000000000008152600401808060200182810382526022815260200180611d1a6022913960400191505060405180910390fd5b6001600083815481106112a357fe5b9060005260206000209060090201600801541461130b576040517f08c379a0000000000000000000000000000000000000000000000000000000008152600401808060200182810382526054815260200180611d5f6054913960600191505060405180910390fd5b60026000838154811061131a57fe5b906000526020600020906009020160080181905550336000838154811061133d57fe5b906000526020600020906009020160020160006101000a81548173ffffffffffffffffffffffffffffffffffffffff021916908373ffffffffffffffffffffffffffffffffffffffff1602179055506000828154811061139957fe5b906000526020600020906009020160060154600083815481106113b857fe5b90600052602060002090600902016004015403600083815481106113d857fe5b906000526020600020906009020160070181905550600082815481106113fa57fe5b906000526020600020906009020160000160009054906101000a900473ffffffffffffffffffffffffffffffffffffffff1673ffffffffffffffffffffffffffffffffffffffff166108fc349081150290604051600060405180830381858888f19350505050158015611471573d6000803e3d6000fd5b505050565b816001151561148482611b95565b1515146114dc576040517f08c379a000000000000000000000000000000000000000000000000000000000815260040180806020018281038252602a815260200180611e33602a913960400191505060405180910390fd5b600083815481106114e957fe5b9060005260206000209060090201600301543414611552576040517f08c379a000000000000000000000000000000000000000000000000000000000815260040180806020018281038252602b815260200180611e08602b913960400191505060405180910390fd5b6000838154811061155f57fe5b906000526020600020906009020160000160009054906101000a900473ffffffffffffffffffffffffffffffffffffffff1673ffffffffffffffffffffffffffffffffffffffff163373ffffffffffffffffffffffffffffffffffffffff161415611615576040517f08c379a0000000000000000000000000000000000000000000000000000000008152600401808060200182810382526023815260200180611d3c6023913960400191505060405180910390fd5b600073ffffffffffffffffffffffffffffffffffffffff166000848154811061163a57fe5b906000526020600020906009020160010160009054906101000a900473ffffffffffffffffffffffffffffffffffffffff1673ffffffffffffffffffffffffffffffffffffffff16146116d8576040517f08c379a000000000000000000000000000000000000000000000000000000000815260040180806020018281038252603a815260200180611c45603a913960400191505060405180910390fd5b600083815481106116e557fe5b906000526020600020906009020160040154821061176b576040517f08c379a000000000000000000000000000000000000000000000000000000000815260040180806020018281038252601f8152602001807f47756172616e746f7220696e74657265737420697320746f6f2068696768210081525060200191505060405180910390fd5b336000848154811061177957fe5b906000526020600020906009020160010160006101000a81548173ffffffffffffffffffffffffffffffffffffffff021916908373ffffffffffffffffffffffffffffffffffffffff16021790555081600084815481106117d657fe5b906000526020600020906009020160060181905550505050565b80600115156117fe82611b95565b151514611856576040517f08c379a000000000000000000000000000000000000000000000000000000000815260040180806020018281038252602a815260200180611e33602a913960400191505060405180910390fd5b816000818154811061186457fe5b906000526020600020906009020160000160009054906101000a900473ffffffffffffffffffffffffffffffffffffffff1673ffffffffffffffffffffffffffffffffffffffff163373ffffffffffffffffffffffffffffffffffffffff1614611936576040517f08c379a00000000000000000000000000000000000000000000000000000000081526004018080602001828103825260198152602001807f596f7520617265206e6f742074686520626f72726f776572210000000000000081525060200191505060405180910390fd5b60026000848154811061194557fe5b90600052602060002090600902016008015414158015611984575060036000848154811061196f57fe5b90600052602060002090600902016008015414155b6119d9576040517f08c379a000000000000000000000000000000000000000000000000000000000815260040180806020018281038252603e815260200180611c7f603e913960400191505060405180910390fd5b60008084815481106119e757fe5b9060005260206000209060090201600801541415611a6d576040517f08c379a00000000000000000000000000000000000000000000000000000000081526004018080602001828103825260208152602001807f5468657265206973206e6f2067756172616e74656520746f2072656a6563742181525060200191505060405180910390fd5b6000808481548110611a7b57fe5b90600052602060002090600902016008018190555060008381548110611a9d57fe5b906000526020600020906009020160010160009054906101000a900473ffffffffffffffffffffffffffffffffffffffff1673ffffffffffffffffffffffffffffffffffffffff166108fc60008581548110611af557fe5b9060005260206000209060090201600301549081150290604051600060405180830381858888f19350505050158015611b32573d6000803e3d6000fd5b506000808481548110611b4157fe5b906000526020600020906009020160010160006101000a81548173ffffffffffffffffffffffffffffffffffffffff021916908373ffffffffffffffffffffffffffffffffffffffff160217905550505050565b60008080549050821015611bac5760019050611bb1565b600090505b919050565b604051806101200160405280600073ffffffffffffffffffffffffffffffffffffffff168152602001600073ffffffffffffffffffffffffffffffffffffffff168152602001600073ffffffffffffffffffffffffffffffffffffffff168152602001600081526020016000815260200160008152602001600081526020016000815260200160008152509056fe546865726520697320616c726561647920612070656e64696e672067756172616e746565206f6e2074686973206c6f616e207265717565737421546865206c6f616e20697320616c72656164792070726f76696465642c20796f752063616e6e6f742072656a656374207468652067756172616e746565214e6f206c6f616e2070726f7669646564207965742c206f72206c6f616e20697320616c72656164792070616964206261636b214f6e6c7920746865206c656e6465722063616e207265636c61696d207468652067756172616e7465652147756172616e746f722063616e6e6f742070726f7669646520746865206c6f616e21426f72726f7765722063616e6e6f742067756172616e74656520746865206c6f616e215468652067756172616e7465652068617320656974686572206e6f7420796574206265656e2061636365707465642c206f722061206c6f616e2068617320616c7265616479206265656e2070726f766964656421426f72726f7765722063616e6e6f742070726f7669646520746865206c6f616e214c656e64657220686173206265656e207061796564206261636b2062792067756172616e746565206f7220626f72726f7765722146756e64732070617373656420696e206d75737420657175616c207468652073756d206f66206c6f616e215468657265206973206e6f206c6f616e2072657175657374206174207468617420706f736974696f6e2146756e64732070617373656420696e206d7573742065786163746c7920657175616c207468652073756d206f66206c6f616e21a264697066735822122092e89360d8f04085f052bb1002bcd797f4afeba4d71b3545b16b84f544234bc964736f6c63430006060033",
  "immutableReferences": {},
  "source": "pragma solidity ^0.6.6;\r\n\r\n\r\ncontract LoanPlatform {\r\n    \r\n    LoanRequest[] requests;\r\n\r\n    struct LoanRequest {\r\n        address payable borrower;\r\n        address payable guarantor;\r\n        address payable lender;\r\n        uint256 sum;\r\n        uint256 interest;\r\n        uint256 paybackPeriod;\r\n        uint256 guarantorInterest;\r\n        uint256 lenderInterest;\r\n        uint256 status;             // 0 = has no accepted guarantee, 1 = has an accepted guarantee, 2 = has been provided a loan, 3 = has been paid back by borrower\r\n    }\r\n\r\n    modifier indexInRange(uint256 index) {\r\n        require(_indexInRange(index) == true, \"There is no loan request at that position!\");\r\n        _;\r\n    }\r\n\r\n    modifier isBorrower(uint256 index) {\r\n        require(msg.sender == requests[index].borrower, \"You are not the borrower!\");\r\n        _;\r\n    }\r\n\r\n    function getLoanRequestArrayLength() public view returns(uint256 length) {\r\n        return requests.length;\r\n    }\r\n    \r\n    function _indexInRange(uint256 index) private view returns(bool inRange) {\r\n        if (index < requests.length) {return true;}\r\n        return false;\r\n    }\r\n    \r\n    function submitRequest(uint256 sum, uint256 interest, uint256 paybackPeriod) public {\r\n        require(sum > 0, \"Loan value cannot be zero!\");\r\n        // Newly submitted loan request TEST THIS^^^\r\n        requests.push(LoanRequest(msg.sender, address(0), address(0), sum, interest, (now + paybackPeriod), 0, 0, 0));\r\n    }\r\n    \r\n    function viewRequest(uint256 index) public view indexInRange(index) returns(address borrower, address guarantor, address lender, uint256 sum , uint256 interest, uint256 paybackPeriod, uint256 guarantorInterest, uint256 lenderInterest, uint256 status) {\r\n        LoanRequest memory lr = requests[index];    // this prevents stack from getting too deep\r\n        return(lr.borrower,\r\n               lr.guarantor,\r\n               lr.lender,\r\n               lr.sum,\r\n               lr.interest,\r\n               lr.paybackPeriod,\r\n               lr.guarantorInterest,\r\n               lr.interest - lr.guarantorInterest,\r\n               lr.status);\r\n    }\r\n    \r\n    function guarantee(uint256 index, uint256 gInterest) public indexInRange(index) payable {\r\n        require(msg.value == requests[index].sum, \"Funds passed in must equal the sum of loan!\");\r\n        require(msg.sender != requests[index].borrower, \"Borrower cannot guarantee the loan!\");\r\n        require(requests[index].guarantor == address(0), \"There is already a pending guarantee on this loan request!\");\r\n        require(gInterest < requests[index].interest, \"Guarantor interest is too high!\");\r\n        requests[index].guarantor = msg.sender;\r\n        requests[index].guarantorInterest = gInterest;\r\n    }\r\n    \r\n    function lend(uint256 index) public indexInRange(index) payable {\r\n        require(msg.value == requests[index].sum, \"Funds passed in must exactly equal the sum of loan!\");\r\n        require(msg.sender != requests[index].borrower, \"Borrower cannot provide the loan!\");\r\n        require(msg.sender != requests[index].guarantor, \"Guarantor cannot provide the loan!\");\r\n        require(requests[index].status == 1, \"The guarantee has either not yet been accepted, or a loan has already been provided!\");\r\n        requests[index].status = 2;\r\n        requests[index].lender = msg.sender;\r\n        requests[index].lenderInterest =  (requests[index].interest -  requests[index].guarantorInterest);\r\n        requests[index].borrower.transfer(msg.value);\r\n    }\r\n\r\n\r\n    function accept(uint256 index) public indexInRange(index) isBorrower(index) {\r\n        requests[index].status = 1;\r\n    }\r\n\r\n\r\n    function reject(uint256 index) public indexInRange(index) isBorrower(index) {\r\n        require((requests[index].status != 2) && (requests[index].status != 3), \"The loan is already provided, you cannot reject the guarantee!\");\r\n        require(requests[index].status != 0, \"There is no guarantee to reject!\");\r\n        requests[index].status = 0;\r\n        requests[index].guarantor.transfer(requests[index].sum);\r\n        requests[index].guarantor = address(0);\r\n    }\r\n    \r\n    \r\n    function payBack(uint256 index) public indexInRange(index) isBorrower(index) payable {\r\n        require(msg.value == (requests[index].sum + requests[index].interest), \"Insufficient funds passed in!\");\r\n        require(requests[index].status == 2, \"No loan provided yet, or loan is already paid back!\");\r\n        requests[index].status = 3; // Set request as paid back by borrower\r\n        requests[index].guarantor.transfer(requests[index].sum + requests[index].guarantorInterest);\r\n        requests[index].lender.transfer(requests[index].sum + requests[index].lenderInterest);\r\n    }\r\n    \r\n    \r\n    function missedPayback(uint256 index) indexInRange(index) public {\r\n        require(now > requests[index].paybackPeriod, \"Payback period not over yet!\");\r\n        require(msg.sender == requests[index].lender, \"Only the lender can reclaim the guarantee!\");\r\n        require(requests[index].status == 2, \"Lender has been payed back by guarantee or borrower!\");\r\n        requests[index].status = 4;        \r\n        msg.sender.transfer(requests[index].sum);\r\n    }\r\n\r\n\r\n    \r\n}\r\n\r\n\r\n\r\n\r\n// TODO \r\n// Include variable names in returns statements\r\n\r\n// Questions\r\n// Fallback for catching payments?\r\n// Allow for staggered paybacks?\r\n\r\n// Assumptions\r\n// LoanRequest must have be guaranteed for a loan to happen\r\n\r\n",
  "sourcePath": "D:/My Documents/Uni/Uni Final Year/Blockchain/assignment/new/LoanPlatform/contracts/LoanPlatform.sol",
  "compiler": {
    "name": "solc",
    "version": "0.6.6+commit.6c089d02.Emscripten.clang"
  },
  "schemaVersion": "3.3.4",
  "updatedAt": "2021-03-03T01:03:26.260Z",
  "networkType": "ethereum",
  "devdoc": {
    "methods": {}
  },
  "userdoc": {
    "methods": {}
  }
}