{
  "contractName": "LoanPlatformWithLoanTokens",
  "abi": [
    {
      "inputs": [],
      "stateMutability": "nonpayable",
      "type": "constructor"
    },
    {
      "inputs": [
        {
          "internalType": "address",
          "name": "loanTokenContract",
          "type": "address"
        }
      ],
      "name": "setLoanTokens",
      "outputs": [],
      "stateMutability": "nonpayable",
      "type": "function"
    },
    {
      "inputs": [],
      "name": "getLoanRequestArrayLength",
      "outputs": [
        {
          "internalType": "uint256",
          "name": "length",
          "type": "uint256"
        }
      ],
      "stateMutability": "view",
      "type": "function",
      "constant": true
    },
    {
      "inputs": [
        {
          "internalType": "uint256",
          "name": "sum",
          "type": "uint256"
        },
        {
          "internalType": "uint256",
          "name": "interest",
          "type": "uint256"
        },
        {
          "internalType": "uint256",
          "name": "paybackPeriod",
          "type": "uint256"
        }
      ],
      "name": "submitRequest",
      "outputs": [],
      "stateMutability": "nonpayable",
      "type": "function"
    },
    {
      "inputs": [
        {
          "internalType": "uint256",
          "name": "index",
          "type": "uint256"
        }
      ],
      "name": "viewRequest",
      "outputs": [
        {
          "internalType": "address",
          "name": "borrower",
          "type": "address"
        },
        {
          "internalType": "address",
          "name": "guarantor",
          "type": "address"
        },
        {
          "internalType": "address",
          "name": "lender",
          "type": "address"
        },
        {
          "internalType": "uint256",
          "name": "sum",
          "type": "uint256"
        },
        {
          "internalType": "uint256",
          "name": "interest",
          "type": "uint256"
        },
        {
          "internalType": "uint256",
          "name": "paybackPeriod",
          "type": "uint256"
        },
        {
          "internalType": "uint256",
          "name": "guarantorInterest",
          "type": "uint256"
        },
        {
          "internalType": "uint256",
          "name": "lenderInterest",
          "type": "uint256"
        },
        {
          "internalType": "uint256",
          "name": "status",
          "type": "uint256"
        }
      ],
      "stateMutability": "view",
      "type": "function",
      "constant": true
    },
    {
      "inputs": [
        {
          "internalType": "uint256",
          "name": "index",
          "type": "uint256"
        },
        {
          "internalType": "uint256",
          "name": "gInterest",
          "type": "uint256"
        }
      ],
      "name": "guarantee",
      "outputs": [],
      "stateMutability": "nonpayable",
      "type": "function"
    },
    {
      "inputs": [
        {
          "internalType": "uint256",
          "name": "index",
          "type": "uint256"
        }
      ],
      "name": "lend",
      "outputs": [],
      "stateMutability": "nonpayable",
      "type": "function"
    },
    {
      "inputs": [
        {
          "internalType": "uint256",
          "name": "index",
          "type": "uint256"
        }
      ],
      "name": "accept",
      "outputs": [],
      "stateMutability": "nonpayable",
      "type": "function"
    },
    {
      "inputs": [
        {
          "internalType": "uint256",
          "name": "index",
          "type": "uint256"
        }
      ],
      "name": "reject",
      "outputs": [],
      "stateMutability": "nonpayable",
      "type": "function"
    },
    {
      "inputs": [
        {
          "internalType": "uint256",
          "name": "index",
          "type": "uint256"
        }
      ],
      "name": "payBack",
      "outputs": [],
      "stateMutability": "nonpayable",
      "type": "function"
    },
    {
      "inputs": [
        {
          "internalType": "uint256",
          "name": "index",
          "type": "uint256"
        }
      ],
      "name": "missedPayback",
      "outputs": [],
      "stateMutability": "nonpayable",
      "type": "function"
    }
  ],
  "bytecode": "0x608060405234801561001057600080fd5b5033600260006101000a81548173ffffffffffffffffffffffffffffffffffffffff021916908373ffffffffffffffffffffffffffffffffffffffff16021790555061265c806100616000396000f3fe608060405234801561001057600080fd5b506004361061009e5760003560e01c80639aab2560116100665780639aab25601461026d578063a6aa57ce1461028b578063b6f4506c146102b9578063b8adaa11146102f1578063d8351b5a1461031f5761009e565b80631455b136146100a357806319b05f49146100e557806323c86a631461011357806326e85250146101415780637ccc5d351461023f575b600080fd5b6100e3600480360360608110156100b957600080fd5b81019080803590602001909291908035906020019092919080359060200190929190505050610363565b005b610111600480360360208110156100fb57600080fd5b8101908080359060200190929190505050610611565b005b61013f6004803603602081101561012957600080fd5b8101908080359060200190929190505050610780565b005b61016d6004803603602081101561015757600080fd5b8101908080359060200190929190505050610b4f565b604051808a73ffffffffffffffffffffffffffffffffffffffff1673ffffffffffffffffffffffffffffffffffffffff1681526020018973ffffffffffffffffffffffffffffffffffffffff1673ffffffffffffffffffffffffffffffffffffffff1681526020018873ffffffffffffffffffffffffffffffffffffffff1673ffffffffffffffffffffffffffffffffffffffff168152602001878152602001868152602001858152602001848152602001838152602001828152602001995050505050505050505060405180910390f35b61026b6004803603602081101561025557600080fd5b8101908080359060200190929190505050610d90565b005b610275611471565b6040518082815260200191505060405180910390f35b6102b7600480360360208110156102a157600080fd5b810190808035906020019092919050505061147d565b005b6102ef600480360360408110156102cf57600080fd5b810190808035906020019092919080359060200190929190505050611a5a565b005b61031d6004803603602081101561030757600080fd5b8101908080359060200190929190505050611e95565b005b6103616004803603602081101561033557600080fd5b81019080803573ffffffffffffffffffffffffffffffffffffffff16906020019092919050505061223a565b005b600083116103d9576040517f08c379a00000000000000000000000000000000000000000000000000000000081526004018080602001828103825260178152602001807f4c6f616e2076616c75652063616e6e6f7420626520302100000000000000000081525060200191505060405180910390fd5b620f4240831080156103ef575082620f42400382105b610444576040517f08c379a000000000000000000000000000000000000000000000000000000000815260040180806020018281038252602f81526020018061244c602f913960400191505060405180910390fd5b60006040518061012001604052803373ffffffffffffffffffffffffffffffffffffffff168152602001600073ffffffffffffffffffffffffffffffffffffffff168152602001600073ffffffffffffffffffffffffffffffffffffffff168152602001858152602001848152602001834201815260200160008152602001600081526020016000815250908060018154018082558091505060019003906000526020600020906009020160009091909190915060008201518160000160006101000a81548173ffffffffffffffffffffffffffffffffffffffff021916908373ffffffffffffffffffffffffffffffffffffffff16021790555060208201518160010160006101000a81548173ffffffffffffffffffffffffffffffffffffffff021916908373ffffffffffffffffffffffffffffffffffffffff16021790555060408201518160020160006101000a81548173ffffffffffffffffffffffffffffffffffffffff021916908373ffffffffffffffffffffffffffffffffffffffff160217905550606082015181600301556080820151816004015560a0820151816005015560c0820151816006015560e0820151816007015561010082015181600801555050505050565b806001151561061f82612324565b151514610677576040517f08c379a000000000000000000000000000000000000000000000000000000000815260040180806020018281038252602a8152602001806125fd602a913960400191505060405180910390fd5b816000818154811061068557fe5b906000526020600020906009020160000160009054906101000a900473ffffffffffffffffffffffffffffffffffffffff1673ffffffffffffffffffffffffffffffffffffffff163373ffffffffffffffffffffffffffffffffffffffff1614610757576040517f08c379a00000000000000000000000000000000000000000000000000000000081526004018080602001828103825260198152602001807f596f7520617265206e6f742074686520626f72726f776572210000000000000081525060200191505060405180910390fd5b60016000848154811061076657fe5b906000526020600020906009020160080181905550505050565b806001151561078e82612324565b1515146107e6576040517f08c379a000000000000000000000000000000000000000000000000000000000815260040180806020018281038252602a8152602001806125fd602a913960400191505060405180910390fd5b600082815481106107f357fe5b9060005260206000209060090201600501544211610879576040517f08c379a000000000000000000000000000000000000000000000000000000000815260040180806020018281038252601c8152602001807f5061796261636b20706572696f64206e6f74206f76657220796574210000000081525060200191505060405180910390fd5b6000828154811061088657fe5b906000526020600020906009020160020160009054906101000a900473ffffffffffffffffffffffffffffffffffffffff1673ffffffffffffffffffffffffffffffffffffffff163373ffffffffffffffffffffffffffffffffffffffff161461093b576040517f08c379a000000000000000000000000000000000000000000000000000000000815260040180806020018281038252602a8152602001806124ae602a913960400191505060405180910390fd5b60026000838154811061094a57fe5b906000526020600020906009020160080154146109b2576040517f08c379a00000000000000000000000000000000000000000000000000000000081526004018080602001828103825260348152602001806125c96034913960400191505060405180910390fd5b6004600083815481106109c157fe5b906000526020600020906009020160080181905550600160009054906101000a900473ffffffffffffffffffffffffffffffffffffffff1673ffffffffffffffffffffffffffffffffffffffff166323b872dd3060008581548110610a2257fe5b906000526020600020906009020160020160009054906101000a900473ffffffffffffffffffffffffffffffffffffffff1660008681548110610a6157fe5b9060005260206000209060090201600301546040518463ffffffff1660e01b8152600401808473ffffffffffffffffffffffffffffffffffffffff1673ffffffffffffffffffffffffffffffffffffffff1681526020018373ffffffffffffffffffffffffffffffffffffffff1673ffffffffffffffffffffffffffffffffffffffff1681526020018281526020019350505050602060405180830381600087803b158015610b0f57600080fd5b505af1158015610b23573d6000803e3d6000fd5b505050506040513d6020811015610b3957600080fd5b8101908080519060200190929190505050505050565b60008060008060008060008060008960011515610b6b82612324565b151514610bc3576040517f08c379a000000000000000000000000000000000000000000000000000000000815260040180806020018281038252602a8152602001806125fd602a913960400191505060405180910390fd5b610bcb612345565b60008c81548110610bd857fe5b9060005260206000209060090201604051806101200160405290816000820160009054906101000a900473ffffffffffffffffffffffffffffffffffffffff1673ffffffffffffffffffffffffffffffffffffffff1673ffffffffffffffffffffffffffffffffffffffff1681526020016001820160009054906101000a900473ffffffffffffffffffffffffffffffffffffffff1673ffffffffffffffffffffffffffffffffffffffff1673ffffffffffffffffffffffffffffffffffffffff1681526020016002820160009054906101000a900473ffffffffffffffffffffffffffffffffffffffff1673ffffffffffffffffffffffffffffffffffffffff1673ffffffffffffffffffffffffffffffffffffffff16815260200160038201548152602001600482015481526020016005820154815260200160068201548152602001600782015481526020016008820154815250509050806000015181602001518260400151836060015184608001518560a001518660c001518760c001518860800151038861010001518898508797508696509a509a509a509a509a509a509a509a509a5050509193959799909294969850565b8060011515610d9e82612324565b151514610df6576040517f08c379a000000000000000000000000000000000000000000000000000000000815260040180806020018281038252602a8152602001806125fd602a913960400191505060405180910390fd5b8160008181548110610e0457fe5b906000526020600020906009020160000160009054906101000a900473ffffffffffffffffffffffffffffffffffffffff1673ffffffffffffffffffffffffffffffffffffffff163373ffffffffffffffffffffffffffffffffffffffff1614610ed6576040517f08c379a00000000000000000000000000000000000000000000000000000000081526004018080602001828103825260198152602001807f596f7520617265206e6f742074686520626f72726f776572210000000000000081525060200191505060405180910390fd5b600260008481548110610ee557fe5b90600052602060002090600902016008015414610f4d576040517f08c379a000000000000000000000000000000000000000000000000000000000815260040180806020018281038252603381526020018061247b6033913960400191505060405180910390fd5b600360008481548110610f5c57fe5b906000526020600020906009020160080181905550600160009054906101000a900473ffffffffffffffffffffffffffffffffffffffff1673ffffffffffffffffffffffffffffffffffffffff166323b872dd3060008681548110610fbd57fe5b906000526020600020906009020160010160009054906101000a900473ffffffffffffffffffffffffffffffffffffffff1660008781548110610ffc57fe5b9060005260206000209060090201600301546040518463ffffffff1660e01b8152600401808473ffffffffffffffffffffffffffffffffffffffff1673ffffffffffffffffffffffffffffffffffffffff1681526020018373ffffffffffffffffffffffffffffffffffffffff1673ffffffffffffffffffffffffffffffffffffffff1681526020018281526020019350505050602060405180830381600087803b1580156110aa57600080fd5b505af11580156110be573d6000803e3d6000fd5b505050506040513d60208110156110d457600080fd5b810190808051906020019092919050505050600160009054906101000a900473ffffffffffffffffffffffffffffffffffffffff1673ffffffffffffffffffffffffffffffffffffffff166323b872dd6000858154811061113157fe5b906000526020600020906009020160000160009054906101000a900473ffffffffffffffffffffffffffffffffffffffff166000868154811061117057fe5b906000526020600020906009020160010160009054906101000a900473ffffffffffffffffffffffffffffffffffffffff16600087815481106111af57fe5b9060005260206000209060090201600601546040518463ffffffff1660e01b8152600401808473ffffffffffffffffffffffffffffffffffffffff1673ffffffffffffffffffffffffffffffffffffffff1681526020018373ffffffffffffffffffffffffffffffffffffffff1673ffffffffffffffffffffffffffffffffffffffff1681526020018281526020019350505050602060405180830381600087803b15801561125d57600080fd5b505af1158015611271573d6000803e3d6000fd5b505050506040513d602081101561128757600080fd5b810190808051906020019092919050505050600160009054906101000a900473ffffffffffffffffffffffffffffffffffffffff1673ffffffffffffffffffffffffffffffffffffffff166323b872dd600085815481106112e457fe5b906000526020600020906009020160000160009054906101000a900473ffffffffffffffffffffffffffffffffffffffff166000868154811061132357fe5b906000526020600020906009020160020160009054906101000a900473ffffffffffffffffffffffffffffffffffffffff166000878154811061136257fe5b9060005260206000209060090201600701546000888154811061138157fe5b906000526020600020906009020160030154016040518463ffffffff1660e01b8152600401808473ffffffffffffffffffffffffffffffffffffffff1673ffffffffffffffffffffffffffffffffffffffff1681526020018373ffffffffffffffffffffffffffffffffffffffff1673ffffffffffffffffffffffffffffffffffffffff1681526020018281526020019350505050602060405180830381600087803b15801561143057600080fd5b505af1158015611444573d6000803e3d6000fd5b505050506040513d602081101561145a57600080fd5b810190808051906020019092919050505050505050565b60008080549050905090565b806001151561148b82612324565b1515146114e3576040517f08c379a000000000000000000000000000000000000000000000000000000000815260040180806020018281038252602a8152602001806125fd602a913960400191505060405180910390fd5b600082815481106114f057fe5b906000526020600020906009020160000160009054906101000a900473ffffffffffffffffffffffffffffffffffffffff1673ffffffffffffffffffffffffffffffffffffffff163373ffffffffffffffffffffffffffffffffffffffff1614156115a6576040517f08c379a00000000000000000000000000000000000000000000000000000000081526004018080602001828103825260218152602001806125a86021913960400191505060405180910390fd5b600082815481106115b357fe5b906000526020600020906009020160010160009054906101000a900473ffffffffffffffffffffffffffffffffffffffff1673ffffffffffffffffffffffffffffffffffffffff163373ffffffffffffffffffffffffffffffffffffffff161415611669576040517f08c379a00000000000000000000000000000000000000000000000000000000081526004018080602001828103825260228152602001806124d86022913960400191505060405180910390fd5b600073ffffffffffffffffffffffffffffffffffffffff166000838154811061168e57fe5b906000526020600020906009020160010160009054906101000a900473ffffffffffffffffffffffffffffffffffffffff1673ffffffffffffffffffffffffffffffffffffffff16141561174a576040517f08c379a00000000000000000000000000000000000000000000000000000000081526004018080602001828103825260178152602001807f4c6f616e206973206e6f742067756172616e746565642100000000000000000081525060200191505060405180910390fd5b60016000838154811061175957fe5b906000526020600020906009020160080154146117c1576040517f08c379a000000000000000000000000000000000000000000000000000000000815260040180806020018281038252605481526020018061251d6054913960600191505060405180910390fd5b6002600083815481106117d057fe5b90600052602060002090600902016008018190555033600083815481106117f357fe5b906000526020600020906009020160020160006101000a81548173ffffffffffffffffffffffffffffffffffffffff021916908373ffffffffffffffffffffffffffffffffffffffff1602179055506000828154811061184f57fe5b9060005260206000209060090201600601546000838154811061186e57fe5b906000526020600020906009020160040154036000838154811061188e57fe5b906000526020600020906009020160070181905550600160009054906101000a900473ffffffffffffffffffffffffffffffffffffffff1673ffffffffffffffffffffffffffffffffffffffff166323b872dd600084815481106118ee57fe5b906000526020600020906009020160020160009054906101000a900473ffffffffffffffffffffffffffffffffffffffff166000858154811061192d57fe5b906000526020600020906009020160000160009054906101000a900473ffffffffffffffffffffffffffffffffffffffff166000868154811061196c57fe5b9060005260206000209060090201600301546040518463ffffffff1660e01b8152600401808473ffffffffffffffffffffffffffffffffffffffff1673ffffffffffffffffffffffffffffffffffffffff1681526020018373ffffffffffffffffffffffffffffffffffffffff1673ffffffffffffffffffffffffffffffffffffffff1681526020018281526020019350505050602060405180830381600087803b158015611a1a57600080fd5b505af1158015611a2e573d6000803e3d6000fd5b505050506040513d6020811015611a4457600080fd5b8101908080519060200190929190505050505050565b8160011515611a6882612324565b151514611ac0576040517f08c379a000000000000000000000000000000000000000000000000000000000815260040180806020018281038252602a8152602001806125fd602a913960400191505060405180910390fd5b60008381548110611acd57fe5b906000526020600020906009020160000160009054906101000a900473ffffffffffffffffffffffffffffffffffffffff1673ffffffffffffffffffffffffffffffffffffffff163373ffffffffffffffffffffffffffffffffffffffff161415611b83576040517f08c379a00000000000000000000000000000000000000000000000000000000081526004018080602001828103825260238152602001806124fa6023913960400191505060405180910390fd5b600073ffffffffffffffffffffffffffffffffffffffff1660008481548110611ba857fe5b906000526020600020906009020160010160009054906101000a900473ffffffffffffffffffffffffffffffffffffffff1673ffffffffffffffffffffffffffffffffffffffff1614611c46576040517f08c379a000000000000000000000000000000000000000000000000000000000815260040180806020018281038252603a8152602001806123d4603a913960400191505060405180910390fd5b60008381548110611c5357fe5b9060005260206000209060090201600401548210611cd9576040517f08c379a000000000000000000000000000000000000000000000000000000000815260040180806020018281038252601f8152602001807f47756172616e746f7220696e74657265737420697320746f6f2068696768210081525060200191505060405180910390fd5b3360008481548110611ce757fe5b906000526020600020906009020160010160006101000a81548173ffffffffffffffffffffffffffffffffffffffff021916908373ffffffffffffffffffffffffffffffffffffffff1602179055508160008481548110611d4457fe5b906000526020600020906009020160060181905550600160009054906101000a900473ffffffffffffffffffffffffffffffffffffffff1673ffffffffffffffffffffffffffffffffffffffff166323b872dd333060008781548110611da657fe5b9060005260206000209060090201600301546040518463ffffffff1660e01b8152600401808473ffffffffffffffffffffffffffffffffffffffff1673ffffffffffffffffffffffffffffffffffffffff1681526020018373ffffffffffffffffffffffffffffffffffffffff1673ffffffffffffffffffffffffffffffffffffffff1681526020018281526020019350505050602060405180830381600087803b158015611e5457600080fd5b505af1158015611e68573d6000803e3d6000fd5b505050506040513d6020811015611e7e57600080fd5b810190808051906020019092919050505050505050565b8060011515611ea382612324565b151514611efb576040517f08c379a000000000000000000000000000000000000000000000000000000000815260040180806020018281038252602a8152602001806125fd602a913960400191505060405180910390fd5b8160008181548110611f0957fe5b906000526020600020906009020160000160009054906101000a900473ffffffffffffffffffffffffffffffffffffffff1673ffffffffffffffffffffffffffffffffffffffff163373ffffffffffffffffffffffffffffffffffffffff1614611fdb576040517f08c379a00000000000000000000000000000000000000000000000000000000081526004018080602001828103825260198152602001807f596f7520617265206e6f742074686520626f72726f776572210000000000000081525060200191505060405180910390fd5b600260008481548110611fea57fe5b90600052602060002090600902016008015414158015612029575060036000848154811061201457fe5b90600052602060002090600902016008015414155b61207e576040517f08c379a000000000000000000000000000000000000000000000000000000000815260040180806020018281038252603e81526020018061240e603e913960400191505060405180910390fd5b600080848154811061208c57fe5b9060005260206000209060090201600801541415612112576040517f08c379a00000000000000000000000000000000000000000000000000000000081526004018080602001828103825260208152602001807f5468657265206973206e6f2067756172616e74656520746f2072656a6563742181525060200191505060405180910390fd5b600080848154811061212057fe5b9060005260206000209060090201600801819055506000838154811061214257fe5b906000526020600020906009020160010160009054906101000a900473ffffffffffffffffffffffffffffffffffffffff1673ffffffffffffffffffffffffffffffffffffffff166108fc6000858154811061219a57fe5b9060005260206000209060090201600301549081150290604051600060405180830381858888f193505050501580156121d7573d6000803e3d6000fd5b5060008084815481106121e657fe5b906000526020600020906009020160010160006101000a81548173ffffffffffffffffffffffffffffffffffffffff021916908373ffffffffffffffffffffffffffffffffffffffff160217905550505050565b600260009054906101000a900473ffffffffffffffffffffffffffffffffffffffff1673ffffffffffffffffffffffffffffffffffffffff163373ffffffffffffffffffffffffffffffffffffffff16146122e0576040517f08c379a00000000000000000000000000000000000000000000000000000000081526004018080602001828103825260378152602001806125716037913960400191505060405180910390fd5b80600160006101000a81548173ffffffffffffffffffffffffffffffffffffffff021916908373ffffffffffffffffffffffffffffffffffffffff16021790555050565b6000808054905082101561233b5760019050612340565b600090505b919050565b604051806101200160405280600073ffffffffffffffffffffffffffffffffffffffff168152602001600073ffffffffffffffffffffffffffffffffffffffff168152602001600073ffffffffffffffffffffffffffffffffffffffff168152602001600081526020016000815260200160008152602001600081526020016000815260200160008152509056fe546865726520697320616c726561647920612070656e64696e672067756172616e746565206f6e2074686973206c6f616e207265717565737421546865206c6f616e20697320616c72656164792070726f76696465642c20796f752063616e6e6f742072656a656374207468652067756172616e746565214c6f616e2076616c75652063616e6e6f742074616b6520616c6c206578697374696e67204c6f616e546f6b656e73214e6f206c6f616e2070726f7669646564207965742c206f72206c6f616e20697320616c72656164792070616964206261636b214f6e6c7920746865206c656e6465722063616e207265636c61696d207468652067756172616e7465652147756172616e746f722063616e6e6f742070726f7669646520746865206c6f616e21426f72726f7765722063616e6e6f742067756172616e74656520746865206c6f616e215468652067756172616e7465652068617320656974686572206e6f7420796574206265656e2061636365707465642c206f722061206c6f616e2068617320616c7265616479206265656e2070726f7669646564214f6e6c792074686520636f6e7472616374206f776e65722063616e20696e7374616e746961746520746865204c6f616e546f6b656e7321426f72726f7765722063616e6e6f742070726f7669646520746865206c6f616e214c656e64657220686173206265656e207061796564206261636b2062792067756172616e746565206f7220626f72726f776572215468657265206973206e6f206c6f616e2072657175657374206174207468617420706f736974696f6e21a2646970667358221220ddfe2d16e6d363b3db364c6e71d3069a868375e1a2d89ef8efac1ed45b7225f664736f6c63430006060033",
  "immutableReferences": {},
  "source": "pragma solidity ^0.6.6;\r\n\r\nimport './LoanToken.sol';\r\n\r\ncontract LoanPlatformWithLoanTokens {\r\n    \r\n    LoanRequest[] requests;\r\n    LoanToken token;\r\n    address owner;\r\n\r\n    struct LoanRequest {\r\n        address payable borrower;\r\n        address payable guarantor;\r\n        address payable lender;\r\n        uint256 sum;\r\n        uint256 interest;\r\n        uint256 paybackPeriod;\r\n        uint256 guarantorInterest;\r\n        uint256 lenderInterest;\r\n        uint256 status;             // 0 = has no accepted guarantee, 1 = has an accepted guarantee, 2 = has been provided a loan, 3 = has been paid back by borrower, 4 = missed payment\r\n    }\r\n\r\n    constructor() public {\r\n        owner = msg.sender;\r\n    }\r\n\r\n    // Make reference to the deployed LoanToken smart contract\r\n    function setLoanTokens(address loanTokenContract) public {\r\n        require(msg.sender == owner, \"Only the contract owner can instantiate the LoanTokens!\");\r\n        token = LoanToken(loanTokenContract);\r\n    }\r\n\r\n    modifier indexInRange(uint256 index) {\r\n        require(_indexInRange(index) == true, \"There is no loan request at that position!\");\r\n        _;\r\n    }\r\n\r\n    modifier isBorrower(uint256 index) {\r\n        require(msg.sender == requests[index].borrower, \"You are not the borrower!\");\r\n        _;\r\n    }\r\n\r\n    function getLoanRequestArrayLength() public view returns(uint256 length) {\r\n        return requests.length;\r\n    }\r\n    \r\n    function _indexInRange(uint256 index) private view returns(bool inRange) {\r\n        if (index < requests.length) {return true;}\r\n        return false;\r\n    }\r\n    \r\n    function submitRequest(uint256 sum, uint256 interest, uint256 paybackPeriod) public {\r\n        // Newly submitted loan request\r\n        require(sum > 0, \"Loan value cannot be 0!\");\r\n        require((sum < 1000000) && (interest < 1000000 - sum), \"Loan value cannot take all existing LoanTokens!\");\r\n        requests.push(LoanRequest(msg.sender, address(0), address(0), sum, interest, (now + paybackPeriod), 0, 0, 0));\r\n    }\r\n    \r\n    function viewRequest(uint256 index) public view indexInRange(index) returns(address borrower, address guarantor, address lender, uint256 sum , uint256 interest, uint256 paybackPeriod, uint256 guarantorInterest, uint256 lenderInterest, uint256 status) {\r\n        LoanRequest memory lr = requests[index];    // this prevents stack from getting too deep\r\n        return(lr.borrower,\r\n               lr.guarantor,\r\n               lr.lender,\r\n               lr.sum,\r\n               lr.interest,\r\n               lr.paybackPeriod,\r\n               lr.guarantorInterest,\r\n               lr.interest - lr.guarantorInterest,\r\n               lr.status);\r\n    }\r\n    \r\n    // No longer payable!\r\n    function guarantee(uint256 index, uint256 gInterest) public indexInRange(index) {\r\n        require(msg.sender != requests[index].borrower, \"Borrower cannot guarantee the loan!\");\r\n        require(requests[index].guarantor == address(0), \"There is already a pending guarantee on this loan request!\");\r\n        require(gInterest < requests[index].interest, \"Guarantor interest is too high!\");\r\n        requests[index].guarantor = msg.sender;\r\n        requests[index].guarantorInterest = gInterest;\r\n        // Uses LoanToken function transferFrom() to transfer guarantor's funds into smart contract\r\n        token.transferFrom(msg.sender, address(this), requests[index].sum);\r\n    }\r\n    \r\n    // No longer payable!\r\n    function lend(uint256 index) public indexInRange(index) {\r\n        require(msg.sender != requests[index].borrower, \"Borrower cannot provide the loan!\");\r\n        require(msg.sender != requests[index].guarantor, \"Guarantor cannot provide the loan!\");\r\n        require(requests[index].guarantor != address(0), \"Loan is not guaranteed!\");\r\n        require(requests[index].status == 1, \"The guarantee has either not yet been accepted, or a loan has already been provided!\");\r\n        requests[index].status = 2;\r\n        requests[index].lender = msg.sender;\r\n        requests[index].lenderInterest =  (requests[index].interest -  requests[index].guarantorInterest);\r\n        // Uses LoanToken function transferFrom() to transfer loan directly from lender to borrower\r\n        token.transferFrom(requests[index].lender, requests[index].borrower, requests[index].sum);\r\n    }\r\n\r\n    function accept(uint256 index) public indexInRange(index) isBorrower(index) {\r\n        requests[index].status = 1;\r\n    }\r\n\r\n    function reject(uint256 index) public indexInRange(index) isBorrower(index) {\r\n        require((requests[index].status != 2) && (requests[index].status != 3), \"The loan is already provided, you cannot reject the guarantee!\");\r\n        require(requests[index].status != 0, \"There is no guarantee to reject!\");\r\n        requests[index].status = 0;\r\n        requests[index].guarantor.transfer(requests[index].sum);\r\n        requests[index].guarantor = address(0);\r\n    }\r\n    \r\n    // No longer payable!\r\n    function payBack(uint256 index) public indexInRange(index) isBorrower(index) {\r\n        require(requests[index].status == 2, \"No loan provided yet, or loan is already paid back!\");\r\n        requests[index].status = 3;\r\n        // LoanTokens are transferred on payBack along with all interest\r\n        token.transferFrom(address(this), requests[index].guarantor, requests[index].sum);\r\n        token.transferFrom(requests[index].borrower, requests[index].guarantor, requests[index].guarantorInterest);\r\n        token.transferFrom(requests[index].borrower, requests[index].lender, requests[index].sum + requests[index].lenderInterest);\r\n    }\r\n    \r\n    function missedPayback(uint256 index) indexInRange(index) public {\r\n        require(now > requests[index].paybackPeriod, \"Payback period not over yet!\");\r\n        require(msg.sender == requests[index].lender, \"Only the lender can reclaim the guarantee!\");\r\n        require(requests[index].status == 2, \"Lender has been payed back by guarantee or borrower!\");\r\n        requests[index].status = 4;\r\n        // LoanTokens are transferred on missedPayback using pull-payment\r\n        token.transferFrom(address(this), requests[index].lender, requests[index].sum);\r\n    }\r\n\r\n\r\n    \r\n}\r\n\r\n\r\n\r\n\r\n// TODO \r\n// Include variable names in returns statements\r\n\r\n// Questions\r\n// Fallback for catching payments?\r\n// Allow for staggered paybacks?\r\n\r\n// Assumptions\r\n// LoanRequest must have be guaranteed for a loan to happen\r\n\r\n",
  "sourcePath": "D:/My Documents/Uni/Uni Final Year/Blockchain/assignment/new/LoanPlatform/contracts/LoanPlatformWithLoanTokens.sol",
  "compiler": {
    "name": "solc",
    "version": "0.6.6+commit.6c089d02.Emscripten.clang"
  },
  "schemaVersion": "3.3.4",
  "updatedAt": "2021-03-03T01:03:29.912Z",
  "networkType": "ethereum",
  "devdoc": {
    "methods": {}
  },
  "userdoc": {
    "methods": {}
  }
}